:1000000012C02CC02BC02BC029C028C027C026C0BE
:1000100025C024C023C022C021C020C01FC01EC0D4
:100020001DC01CC01BC011241FBECFE5D4E0DEBF25
:10003000CDBF13E0A0E6B0E0E2ECF2E002C0059034
:100040000D92A436B107D9F713E0A4E6B3E001C0DE
:100050001D92A536B107E1F725D031C1D1CF1F924E
:100060000F920FB60F9211248F939F93EF93FF93EC
:1000700090916403E92FF0E0E05AFF4F808186956C
:1000800082BB9F3F19F41092640303C09F5F90935B
:100090006403FF91EF919F918F910F900FBE0F908E
:1000A0001F901895CF93DF939FEF91BB80E889BF96
:1000B0008DE085BD93BD789486E087BB80E48FBDDD
:1000C00089E08EBDC0E1D7E258D0E82FF0E0EE0F16
:1000D000FF1FE05AFE4F808191819BBD8ABDCE01FA
:1000E0000197F1F7F1CFA0E0B0E0E8E7F0E096C0CB
:1000F000EC01A880B980CA80DB80A114B104C104DE
:10010000D10441F484E2A82E89EDB82E8BE5C82EE7
:1001100087E0D82EC601B5012DE133EF41E050E074
:100120005AD027EA31E440E050E036D07B018C0120
:10013000C601B5012DE133EF41E050E04CD0CA01DA
:10014000B9012CEE34EF4FEF5FEF26D06E0D7F1D1F
:10015000801F911F97FF04C06150704080409048FD
:10016000688379838A839B839B013F77C901CDB7DD
:10017000DEB7EAE06FC0B7DF089580E693E0B3DF53
:100180000895A0E0B0E08093600390936103A09392
:100190006203B09363030895629FD001739FF001DF
:1001A000829FE00DF11D649FE00DF11D929FF00D07
:1001B000839FF00D749FF00D659FF00D9927729F3E
:1001C000B00DE11DF91F639FB00DE11DF91FBD01C9
:1001D000CF011124089597FB092E05260ED057FD57
:1001E00004D04BD00AD0001C38F45095409530957F
:1001F00021953F4F4F4F5F4F0895F6F790958095AB
:10020000709561957F4F8F4F9F4F08952F923F922A
:100210004F925F926F927F928F929F92AF92BF9216
:10022000CF92DF92EF92FF920F931F93CF93DF93C2
:10023000CDB7DEB7CA1BDB0B0FB6F894DEBF0FBE1F
:10024000CDBF09942A88398848885F846E847D846C
:100250008C849B84AA84B984C884DF80EE80FD806E
:100260000C811B81AA81B981CE0FD11D0FB6F894E4
:10027000DEBF0FBECDBFED010895A1E21A2EAA1B6D
:10028000BB1BFD010DC0AA1FBB1FEE1FFF1FA21746
:10029000B307E407F50720F0A21BB30BE40BF50B43
:1002A000661F771F881F991F1A9469F760957095CC
:1002B000809590959B01AC01BD01CF010895F89404
:0202C000FFCF6E
:1002C200808386898C8F9295989C9FA2A5A8ABAEBD
:1002D200B0B3B6B9BCBFC1C4C7C9CCCED1D3D5D8CF
:1002E200DADCDEE0E2E4E6E8EAECEDEFF0F2F3F588
:1002F200F6F7F8F9FAFBFCFCFDFEFEFFFFFFFFFF3D
:10030200FFFFFFFFFFFFFEFEFDFCFCFBFAF9F8F723
:10031200F6F5F3F2F0EFEDECEAE8E6E4E2E0DEDC3B
:10032200DAD8D5D3D1CECCC9C7C4C1BFBCB9B6B354
:10033200B0AEABA8A5A29F9C9895928F8C8986831C
:10034200807C797673706D6A6763605D5A57545129
:100352004F4C494643403E3B383633312E2C2A27F8
:100362002523211F1D1B1917151312100F0D0C0A1F
:10037200090807060504030302010100000000004A
:100382000000000000000101020303040506070843
:10039200090A0C0D0F1012131517191B1D1F21230B
:1003A20025272A2C2E313336383B3E404346494CD2
:1003B2004F5154575A5D6063676A6D707376797CEA
:1003C2005900A102F2019E022800CF01DB013B028B
:1003D2004D00B0021C01A602A80089028900340067
:1003E2002C02FB01B3010903C602C901E500C801E1
:1003F200DD024600D80193005E00320222030601AC
:100402009102E9029D02C100CC013F016701C001D6
:1004120062022F002B029B022103C902170307016C
:100422005100390051023D0072002C03B1009301CA
:100432004801BC02FF0224025D01DA01DB02BE00B8
:10044200DF016D0064001B028A012002ED0004033B
:10045200D400D900B8001203340148020102250178
:100462001003D1021C0166026C01EB01D9018A0161
:1004720005020702B202D4005C008A02C6018A01A8
:10048200B500570141010003C701EF02D302080181
:10049200A602FC00BB024500F8012901CE026E0152
:1004A20026039D001C038C006A00B9008F014600E0
:1004B200F700C8003801AF02EE0174018C001F0181
:1004C200F80096001301B7027800D500A600650176
:1004D2001C01C10055016900250051014D00840134
:1004E200BB016E003D012B03A90084019D0239026C
:1004F200DB023F00DC0226011F0178012F009A0275
:100502006B0198024100E301370120021F014E01F5
:10051200800181014F026802470092010A03FE0135
:1005220046006101D702A1027A02920145027101DD
:10053200C5007B00A3015500EF021E02F300570025
:100542004B004702DE00EB0041025A001B03E700AA
:100552000C030F03AF014001800193019400E301FA
:1005620076016E026C026E01C802D7014A02530282
:10057200F2014B017B00540171028700FB01620210
:100582006402C201F7011F0384026C002C00A50162
:100592003A0029012C03280370029E00AB01450298
:1005A200AA004A01200122029B02E7005D01CD025E
:1005B2001E03F8001D03B9011F0391027F02F2001E
:0405C2000100000034
:00000001FF
